:100000000C945D000C9485000C9485000C94850084
:100010000C9485000C9485000C9485000C9485004C
:100020000C9485000C9485000C9485000C9485003C
:100030000C9485000C9485000C9485000C9485002C
:100040000C946E050C9485000C94DE050C94B80598
:100050000C9485000C9485000C9485000C9485000C
:100060000C9410060C94850000000000240027006A
:100070002A0000000000250028002B0004040404CE
:100080000404040402020202020203030303030342
:10009000010204081020408001020408102001021F
:1000A00004081020000000080002010000030407FB
:1000B00000000000000000002F0711241FBECFEF3A
:1000C000D8E0DEBFCDBF11E0A0E0B1E0E0E1F5E1B6
:1000D00002C005900D92A432B107D9F722E0A4E244
:1000E000B1E001C01D92AD3FB207E1F710E0CDE5F0
:1000F000D0E004C02197FE010E94800ACC35D107D0
:10010000C9F70E9474070C94860A0C9400009C01A5
:10011000FC01EF5BFF4F9081D901A05CBF4F8C9138
:10012000891741F0290F311DD9018C919F5F9F7371
:100130009083089580E0089590E0FC01EC55FF4F16
:100140002491FC01E057FF4F3491FC01E458FF4F2C
:10015000E491EE23C9F0222339F0233001F1A8F411
:10016000213019F1223029F1F0E0EE0FFF1FEE5897
:10017000FF4FA591B4918FB7F894EC91611126C00F
:1001800030953E233C938FBF08952730A9F0283047
:10019000C9F0243049F7809180008F7D03C08091A1
:1001A00080008F7780938000DFCF84B58F7784BD08
:1001B000DBCF84B58F7DFBCF8091B0008F778093AC
:1001C000B000D2CF8091B0008F7DF9CF3E2BDACF37
:1001D0003FB7F89480918F0190919001A091910187
:1001E000B091920126B5A89B05C02F3F19F001964A
:1001F000A11DB11D3FBFBA2FA92F982F8827BC0181
:10020000CD01620F711D811D911D43E0660F771FA7
:10021000881F991F4A95D1F7089580916C0190919C
:100220006D01891B990B089508950895AF92BF92AF
:10023000CF92DF92EF92FF920F931F93CF93DF93B2
:100240006C017B018B01040F151FEB015E01AE18E1
:10025000BF08C017D10759F06991D601ED91FC9103
:100260000190F081E02DC6010995892B79F7C50130
:10027000DF91CF911F910F91FF90EF90DF90CF9082
:10028000BF90AF900895FC01538D448D252F30E031
:10029000842F90E0821B930B541710F0CF96089593
:1002A00001970895FC01918D828D981761F0A28DC0
:1002B000AE0FBF2FB11D5D968C91928D9F5F9F7386
:1002C000928F90E008958FEF9FEF0895FC01918D3C
:1002D000828D981731F0828DE80FF11D858D90E0A9
:1002E00008958FEF9FEF0895FC01918D228D892F46
:1002F00090E0805C9F4F821B91098F73992708952E
:10030000CF93DF93C1E08FE092E00E947401892BCC
:1003100099F18FE092E00E945201D82F8091F9026A
:10032000282F30E0A9014F5F5F4F4F735527909101
:10033000FA029417150649F028543D4FF901D1836C
:100340008F5F8F738093F902DECFC093FB0289EB3E
:1003500092E00E9487008091F902282F30E0A901E5
:100360004F5F5F4F4F7355279091FA029417150610
:1003700019F7C093FB02C7CFDF91CF9108958FE0AB
:1003800092E00E94740121E0892B09F420E0822F81
:10039000089580E090E0892B29F00E94BF0181112F
:1003A0000C9400000895FC01A48DA80FB92FB11D75
:1003B000A35ABF4F2C91848D90E001968F7399279B
:1003C000848FA689B7892C93A089B1898C91837079
:1003D00080648C93938D848D981306C00288F38972
:1003E000E02D80818F7D80830895EF92FF920F939F
:1003F0001F93CF93DF93EC0181E0888F9B8D8C8DD1
:1004000098131AC0E889F989808185FF15C09FB7C4
:10041000F894EE89FF896083E889F9898081837087
:10042000806480839FBF81E090E0DF91CF911F9136
:100430000F91FF90EF900895F62E0B8D10E00F5F57
:100440001F4F0F731127E02E8C8D8E110CC00FB62D
:1004500007FCFACFE889F989808185FFF5CFCE01C5
:100460000E94D301F1CFEB8DEC0FFD2FF11DE35A6C
:10047000FF4FF0829FB7F8940B8FEA89FB89808148
:100480008062CFCFCF93DF931F92CDB7DEB7898342
:100490006EE18FE092E00E94F50141E050E0BE0184
:1004A0006F5F7F4F8FE092E00E9416016FE18FE057
:1004B00092E00E94F5010F90DF91CF910895CF93C4
:1004C000DF93EC01888D8823B9F0AA89BB89E8897C
:1004D000F9898C9185FD03C0808186FD0DC00FB622
:1004E00007FCF7CF8C9185FFF2CF808185FFEDCFA0
:1004F000CE010E94D301E9CFDF91CF9108952091E1
:100500004501260F3327331F21323105ECF42091AA
:10051000E501FC0190E080E0243069F082E008957C
:10052000A09145012191AC014B5D5E4FA40FB52F09
:10053000B11D2C930196861798F380914501680FA1
:100540006093450180E0089581E008951092E501EF
:1005500081E08093E4011092BF0161E082E10E949A
:100560009C0061E083E10E949C00E9EBF0E0808167
:100570008E7F808380818D7F808380E28093B8002E
:1005800085E48093BC000895CF93DF9391E090932E
:1005900024018823B9F0C091B800D091BA008091AD
:1005A000BC008A7B8093BC0060E082E10E949C00DA
:1005B00060E083E10E949C000E94A602D093BA00F2
:1005C000C093B800DF91CF9108958F929F92AF9220
:1005D000BF92CF92DF92EF92FF920F931F93CF9330
:1005E000DF93D0910E02D13208F0D7C0182FC091FE
:1005F0000D020E94E8006B017C018091E5018111F0
:100600006BC082E08093E5011093E4018FEF80934B
:10061000E3011092E201D093E101ADEEB1E0E1EC33
:10062000F1E080E0D81391C01092C0018091C00128
:10063000CC0FC82BC093C0018091BF01813009F05D
:1006400088C01092BF010E94E8006B017C0180917C
:10065000C0018093BB008091E7019091E801A091D7
:10066000E901B091EA01892B8A2B8B2BA1F00E9422
:10067000E8000091E7011091E8012091E901309133
:10068000EA016C197D098E099F09061717072807CB
:10069000390708F442C08091BC0083FDD8CF85ECB7
:1006A0008093BC000E94E8006B017C018091E50111
:1006B000823009F450C08091E3018F3F09F46FC08C
:1006C0008091E301803209F46CC08091E3018033B2
:1006D00009F469C084E026C08091E7019091E801A7
:1006E000A091E901B091EA01892B8A2B8B2B09F4A7
:1006F00084CF0E94E8008090E7019090E801A090EC
:10070000E901B090EA016C197D098E099F098616EE
:100710009706A806B90608F070CF8091E6010E94FE
:10072000C40285E01092EC0110920E021092EB01CF
:10073000DF91CF911F910F91FF90EF90DF90CF90BD
:10074000BF90AF909F908F9008959D9191938F5FF0
:1007500069CF85EEA5CF8091E7019091E801A09146
:10076000E901B091EA01892B8A2B8B2B09F49ECFEA
:100770000E94E8000091E7011091E8012091E90151
:100780003091EA016C197D098E099F090617170738
:100790002807390708F08ACFC0CF81E0C3CF80E0B7
:1007A000C1CF82E0BFCF83E0BDCF0895E0916D015E
:1007B00080916C01E81730F4F0E0E259FE4F80813F
:1007C00090E008958FEF9FEF089590916D018091D3
:1007D0006C012FEF3FEF981748F4E92FF0E0E25952
:1007E000FE4F208130E09F5F90936D01C901089515
:1007F000CF92DF92EF92FF920F931F93CF93DF93ED
:100800007C01CB018A012091EB01222389F0EB01CD
:100810006B01C40ED51ECC15DD0569F06991D701B9
:10082000ED91FC910190F081E02DC7010995F3CF86
:10083000642F0E947F02C801DF91CF911F910F9119
:10084000FF90EF90DF90CF900895CF93DF931F92AA
:10085000CDB7DEB769832091EB012223F9F0209117
:100860000E02203258F021E030E0FC013383228375
:1008700090E080E00F90DF91CF9108958091EC019E
:10088000E82FF0E0E351FE4F998190838F5F8093D2
:10089000EC0180930E0281E090E0ECCF61E0CE01AC
:1008A00001960E947F02F7CF90E080E00895E7E98B
:1008B000F1E014821382158217A216A2EDE9F1E08D
:1008C00080E2DF011D928A95E9F708958F929F9249
:1008D000AF92BF92FF920F931F93CF93DF93082F96
:1008E000F92E162F0E9480019091F9028091FA0250
:1008F000C1E0D0E0981709F458C08FB7F894809001
:10090000930190909401A0909501B09096018FBFB3
:10091000C12FD0E021962FB7F89480919301909148
:100920009401A0919501B09196012FBF8819990962
:10093000AA09BB0984369105A105B10508F05DC07F
:100940000E948001E091FA028091F9028E1B8F7360
:100950008C171D0601F3FCF2AE2FAF73B0E0A85464
:10096000BD4F11968C918E3159F5EC0FFD2FF11D75
:10097000EF73FF27E854FD4F81818F3109F589EB33
:1009800092E00E948700B02EC02FDF2D89EB92E00D
:100990000E94870089938C2F8B198117B8F389EBFC
:1009A00092E00E948700D0E0C0E0CE01DF91CF91BD
:1009B0001F910F91FF90BF90AF909F908F900895DF
:1009C00089EB92E00E948700E091FA028091F9029F
:1009D0008E1739F0EF73F0E0E854FD4F81818E31CE
:1009E00079F78CE00E944202C3E0D0E00E945704F5
:1009F0001092980110929701D8CF88E00E9442028D
:100A0000C2E0D0E0F3CFCF93DF9300D0CDB7DEB715
:100A100062E0CE0101960E946604892BB9F48981B7
:100A20009A81982789279827811520E1920728F431
:100A30009C012F713327232B71F086E00E94420224
:100A40000E94570410929801109297010F900F90F6
:100A5000DF91CF91089590939B0180939A0181E05B
:100A600080939C0187E00E944202ECCF85ED809349
:100A7000BC008091E7019091E801A091E901B0915B
:100A8000EA010796A11DB11D23E0B695A79597959C
:100A900087952A95D1F72091BC0024FD03C01092C0
:100AA000E50108954091E7015091E8016091E90165
:100AB0007091EA01452B462B472B69F30097A1055E
:100AC000B10541F025E12A95F1F700000197A10950
:100AD000B109E1CF8091E6010C94C4021F920F92FC
:100AE0000FB60F9211242F933F938F939F93AF9341
:100AF000BF938091930190919401A0919501B09141
:100B0000960130918E0126E0230F2D3758F502967D
:100B1000A11DB11D20938E018093930190939401A8
:100B2000A0939501B093960180918F0190919001CF
:100B3000A0919101B09192010196A11DB11D8093E8
:100B40008F0190939001A0939101B0939201BF9176
:100B5000AF919F918F913F912F910F900FBE0F906A
:100B60001F90189529E8230F0396A11DB11DD2CF20
:100B70001F920F920FB60F9211242F933F934F9312
:100B80005F936F937F938F939F93AF93BF93EF93F5
:100B9000FF938FE092E00E94D301FF91EF91BF910C
:100BA000AF919F918F917F916F915F914F913F9105
:100BB0002F910F900FBE0F901F9018951F920F92BC
:100BC0000FB60F9211242F938F939F93EF93FF9360
:100BD000E0911F02F09120028081E0912502F091C6
:100BE000260282FD1BC09081809128028F5F8F7347
:100BF00020912902821741F0E0912802F0E0E15FA4
:100C0000FD4F958F80932802FF91EF919F918F91D7
:100C10002F910F900FBE0F901F9018958081F4CFE9
:100C20001F920F920FB60F9211242F933F934F9361
:100C30005F936F937F938F939F93AF93BF93EF9344
:100C4000FF938091B900887F803609F44AC0F0F59F
:100C5000883209F4A7C018F5803109F49BC0B8F4B4
:100C6000882309F4F9C0883009F494C0FF91EF910A
:100C7000BF91AF919F918F917F916F915F914F91B4
:100C80003F912F910F900FBE0F901F9018958831B4
:100C900009F488C0803251F78093E30114C0803496
:100CA00009F49DC040F48033B9F38833F9F680939A
:100CB000E30185ECB0C0803509F485C0883509F4BE
:100CC00096C0883499F60E943605D0CF883909F449
:100CD0008CC038F5883729F050F4883611F0803709
:100CE00029F683E08093E5011092670157C08838A8
:100CF00009F47BC0803919F0803809F0B7CF8091B2
:100D00006701803208F071C0E091670181E08E0FC9
:100D1000809367018091BB00F0E0E95BFE4F808328
:100D20003DC0803B39F0E0F4803A09F479C0883A5C
:100D300009F09CCF84E08093E50110924601109267
:100D40004501E0916A01F0916B010995809145019F
:100D500081110FC081E0809345011092250109C0E7
:100D6000803C09F4A6CF883C09F4A3CF883B09F066
:100D70007DCFE091460181E08E0F80934601F0E047
:100D8000EB5DFE4F80818093BB0090914601809186
:100D9000450129C08091C0018093BB0085EC809300
:100DA000BC0064CF9091E2018091E101981758F561
:100DB000E091E20181E08E0F8093E201F0E0EF53D9
:100DC000FE4F8081E9CFE091E20181E08E0F8093B8
:100DD000E2018091BB00F0E0EF53FE4F80839091E1
:100DE000E2018091E1019817C8F285E8D8CFE0913F
:100DF000E20181E08E0F8093E2018091BB00F0E080
:100E0000EF53FE4F80838091E40181115CCF81E03C
:100E10008093BF0184EA8093BC001092E50126CF45
:100E200085EC8093BC001092E501809167018032CF
:100E300030F4E0916701F0E0E95BFE4F10826091D1
:100E4000670170E0E0916801F091690187E491E049
:100E50000995109267010ACF1092E30134CFEFE0B9
:100E6000F2E01382128288EE93E0A0E0B0E0848387
:100E70009583A683B78324E031E03183208325EC7A
:100E800030E03587248724EC30E03787268720EC54
:100E900030E0318B208B21EC30E0338B228B22EC45
:100EA00030E0358B248B26EC30E0378B268B118E8F
:100EB000128E138E148EECEAF2E013821282848377
:100EC0009583A683B78386E191E09183808380E553
:100ED0008093FC0289E08093B8021092F90210928C
:100EE000FA021092FB020895CF93DF9300D01F9275
:100EF000CDB7DEB7789484B5826084BD84B5816057
:100F000084BD85B5826085BD85B5816085BD8091D4
:100F10006E00816080936E0010928100809181004C
:100F20008260809381008091810081608093810044
:100F3000809180008160809380008091B100846006
:100F40008093B1008091B00081608093B000809167
:100F50007A00846080937A0080917A008260809326
:100F60007A0080917A008E7F80937A0080917A0057
:100F7000806880937A001092C10010926D011092E7
:100F80006C011092EC0110920E020E94A60284E104
:100F900091E090936B0180936A0185E191E09093D9
:100FA00069018093680180E28093B800E0911F029C
:100FB000F091200282E08083E0911B02F0911C02FC
:100FC0001082E0911D02F0911E0280E18083109258
:100FD0002702E0912302F091240286E08083E091D1
:100FE0002102F0912202808180618083E0912102C0
:100FF000F0912202808188608083E0912102F0914B
:101000002202808180688083E0912102F091220297
:1010100080818F7D80838091B80290E0FC01E05751
:10102000FF4F249184589F4FFC018491882399F0AD
:1010300090E0880F991FFC01E859FF4FA591B491EA
:10104000FC01EE58FF4F859194918FB7F894EC9185
:10105000E22BEC938FBF61E08091B8020E949C006C
:1010600033E0232E312C42E0A42EB12C882483942B
:10107000912C80919701909198018130910541F1D7
:1010800090F08230910509F49CC0039709F418C1CF
:1010900080E090E0892B69F30E94BF01882349F327
:1010A0000E940000E6CF198261E0CE0101960E9405
:1010B0006604892B69F789819FEF980F973008F0B4
:1010C00080E0809399019092980180929701E0CFFF
:1010D00080919901833009F455C048F48130E1F1E1
:1010E0008230E1F11092980110929701D1CF8430B3
:1010F00009F454C08530B1F760E08091B8020E94D5
:101100009C000E94E8006B017C0122E3422E512CDE
:10111000612C712C0E94E8006C197D098E099F09D1
:10112000683E734081059105A8F3F1E04F1A51081C
:101130006108710828EEC20E23E0D21EE11CF11CEA
:10114000411451046104710429F761E08091B802EF
:101150000E949C000E94570487E011C08091FC020D
:1011600091E09093EB0180930D021092EC011092AC
:101170000E0281E00E94E502882371F386E00E945E
:101180004202B0CF80919C01811103C087E00E9490
:10119000420230929801209297017ACF80919C016F
:1011A000811108C087E00E944202B0929801A0928B
:1011B00097016ECF8091BD019091BE01892BA9F757
:1011C000F1CF80919C01811103C00E94030560CF83
:1011D0000091BD011091BE010115110579F460E285
:1011E0008DE991E00E946604892B09F051CF80E2DD
:1011F00090E09093BE018093BD01AECF70909A01B4
:1012000060909B0193E0F92EEE24E3948091FC0220
:10121000E092EB0180930D021092EC0110920E020D
:10122000662D8CEA92E00E942504672D8CEA92E0FC
:101230000E942504A8016DE971E08CEA92E00E9409
:10124000F80381E00E94E502811135C08FB7F89460
:101250004090930150909401609095017090960198
:101260008FBF11E08091FC021093EB0180930D027F
:101270001092EC0110920E0281E00E94E502882398
:1012800009F43CC12FB7F894809193019091940197
:10129000A0919501B09196012FBF84199509A609D7
:1012A000B7090A97A105B105E8F288E00E94420259
:1012B0000E94570417CFFA94F110A8CF89E0F6CF17
:1012C00080919C01882309F480CFE0E2F0E0F09364
:1012D000BE01E093BD01F0919A01FA8320919B0138
:1012E0002B8383E0F82E01E08091FC020093EB0158
:1012F00080930D021092EC0110920E026B818CEA29
:1013000092E00E9425046A818CEA92E00E94250402
:1013100080E00E94E502182F8111EBC0E090FC02F2
:101320000E94E8002B013C018091E501811164C01D
:101330000093E5010093E4018FEF8093E3011092A5
:10134000E2019FE19093E1010093C0018091C0010F
:10135000EE0CE82AE092C0018091BF01813009F0D3
:10136000A0C01092BF010E94E8002B013C018091B7
:10137000C0018093BB008091E7019091E801A091AA
:10138000E901B091EA01892B8A2B8B2BA1F00E94F5
:10139000E8002091E7013091E8014091E901509186
:1013A000EA0164197509860997092617370748075E
:1013B000590708F442C08091BC0083FDD8CFE5EC0A
:1013C000E093BC000E94E8002B013C018091E50104
:1013D000813009F46AC08091E201803208F087C050
:1013E0008091E201A1ECB1E0EEE6F1E0181749F1DD
:1013F0009D9191931F5FFACF8091E7019091E80151
:10140000A091E901B091EA01892B8A2B8B2B09F479
:101410008BCF0E94E8002091E7013091E8014091D4
:10142000E9015091EA01641975098609970926179F
:1014300037074807590708F077CF8091E6010E94E7
:10144000C40210926D0110936C01103209F051C06A
:101450000DE911E080916D01803209F44DC08CEAF4
:1014600092E00E94E503F80181938F01F1E00D3BCA
:101470001F0781F70091BD011091BE016EE18FE061
:1014800092E00E94F501A80155276DE971E08FE017
:1014900092E00E9416016FE18FE092E00E94F50158
:1014A00007CFF5EEF093BC008DCF8091E7019091CE
:1014B000E801A091E901B091EA01892B8A2B8B2BDD
:1014C00009F484CF0E94E8002091E7013091E801FF
:1014D0004091E9015091EA0164197509860997095B
:1014E000261737074807590708F070CFA6CF80E2C4
:1014F00079CFFA94F110F8CE8AE0D8CE87E0D6CE34
:10150000EE0FFF1F0590F491E02D0994F894FFCFA2
:1015100000000000F501160143015F027401520151
:101520006601000000002504F8035404D5030D01F2
:04153000E503D603F6
:00000001FF
