:100000000C9491000C94B9000C94B9000C94B900B4
:100010000C94B9000C94B9000C94B9000C94B9007C
:100020000C94B9000C94B9000C94B9000C94B9006C
:100030000C94B9000C94B9000C94B9000C94B9005C
:100040000C94D2050C94B9000C943A060C94140646
:100050000C94B9000C94B9000C94B9000C94B9003C
:100060000C946C060C94B9000C94B9000C94B90073
:100070000C94B9000C94B9000C94B9000C94B9001C
:100080000C94B9000C94B9000C94B9000C94B9000C
:100090000C94B9000C94B9000C94B9000C94B900FC
:1000A0000C94B9000C94B9000C94B9000C94B900EC
:1000B0000C94B90000000000240027002A002D0045
:1000C00000000000250028002B002E00040404047A
:1000D00004040404020202020202030303030303F2
:1000E00002020305050505010204081020408001F5
:1000F0000204081020010204081020408040010280
:1001000004080A0D0E09000302000004050800009F
:100110000000000000000000000000000000980740
:100120006D0A11241FBECFEFD8E0DEBFCDBF11E0B6
:10013000A0E0B1E0EAEDF7E102C005900D92AA322D
:10014000B107D9F723E0AAE2B1E001C01D92A430C3
:10015000B207E1F710E0C0E9D0E004C02197FE014A
:100160000E94A60ACF38D107C9F70E9429080C942B
:10017000E00B0C940000880F8093BA0008959B0157
:10018000AC0160E07BE187EB90E00E94840A2051A3
:10019000310941095109569547953795279520937F
:1001A000B8000895882321F085EC8093BC00089561
:1001B00085E8FBCF85ED8093BC008091BC0084FD79
:1001C000FCCF1092B401089585EC8093BC0010928E
:1001D000B40108950F93CF93DF93CBE8D2E06B89FE
:1001E0007C89EEA1FFA1082F21E04E898A8909951B
:1001F0001D8A1E8A1F8ADF91CF910F9108959C015D
:10020000FC01EF5BFF4F9081D901A05CBF4F8C9147
:10021000891741F0290F311DD9018C919F5F9F7380
:100220009083089580E00895282F30E0F901EE5F73
:10023000FE4F9491F901E951FF4F849124533F4FB0
:10024000F9012491222309F42EC09923D9F0925068
:100250009D30C0F4E92FF0E0E05DFE4F0C94A60A5B
:1002600076017A013D0154014201420158015E01CB
:100270006201680142016C017201909180009F77D8
:1002800090938000E22FF0E0EE0FFF1FE054FF4F4D
:10029000A591B4919FB7F894EC9161112EC080950F
:1002A0008E238C939FBF0895909180009F7DE8CF0F
:1002B0009091B0009F779093B000E4CF9091B00000
:1002C0009F7DF9CF909190009F7790939000DACF27
:1002D000909190009F7DF9CF9091A0009F7790938F
:1002E000A000D0CF9091A0009F7DF9CF94B59F77CB
:1002F00094BDC8CF94B59F7DFBCF8E2BD2CF1092EB
:10030000B40181E08093B6011092B50161E082E111
:100310000E94140161E083E10E941401E9EBF0E026
:1003200080818E7F808380818D7F808384E3809332
:10033000B80085E48093BC000895ECEBF0E0808188
:100340008A7B808360E082E10E94140160E083E1A7
:100350000C941401CF92DF92EF92FF926FB7F89452
:100360008091BE019091BF01A091C001B091C101E7
:100370005091BD0126B535B3432F417030FF04C005
:1003800041E02F3F09F440E06FBF6C017D0137E091
:10039000CC0CDD1CEE1CFF1C3A95D1F7C50ED11C10
:1003A000E11CF11CC81AD90AEA0AFB0A880F991F36
:1003B000AA1FBB1FC81AD90AEA0AFB0A63E0CC0CC1
:1003C000DD1CEE1CFF1C6A95D1F730E0A5E5B5E019
:1003D0000E94AC0A672F782F892F99276C0D7D1DFD
:1003E0008E1D9F1D442321F06B5A7A4F8F4F9F4FD4
:1003F000FF90EF90DF90CF900895FC018189908964
:10040000891B990B0895AF92BF92CF92DF92EF9222
:10041000FF920F931F93CF93DF936C017B018B01AE
:10042000040F151FEB015E01AE18BF08C017D107FE
:1004300059F06991D601ED91FC910190F081E02D88
:10044000C6010995892B79F7C501DF91CF911F91DD
:100450000F91FF90EF90DF90CF90BF90AF900895F5
:10046000FC01538D448D252F30E0842F90E0821BBA
:10047000930B541710F0CF96089501970895FC013F
:10048000918D828D981761F0A28DAE0FBF2FB11D97
:100490005D968C91928D9F5F9F73928F90E00895EF
:1004A0008FEF9FEF0895FC01918D828D981731F0A9
:1004B000828DE80FF11D858D90E008958FEF9FEFFD
:1004C0000895FC01918D228D892F90E0805C9F4FD3
:1004D000821B91098F7399270895CF93DF93C1E011
:1004E0008AEE91E00E946102892B99F18AEE91E0F7
:1004F0000E943F02D82F8091FC02282F30E0A901F2
:100500004F5F5F4F4F7355279091FD02941715066B
:1005100049F025543D4FF901D1838F5F8F7380934C
:10052000FC02DECFC093FE028CEB92E00E94FF0043
:100530008091FC02282F30E0A9014F5F5F4F4F737D
:1005400055279091FD029417150619F7C093FE02E6
:10055000C7CFDF91CF9108958AEE91E00E946102AA
:1005600021E0892B09F420E0822F0895FC01A48D5D
:10057000A80FB92FB11DA35ABF4F2C91848D90E0C5
:1005800001968F739927848FA689B7892C93A089A8
:10059000B1898C91837080648C93938D848D981332
:1005A00006C00288F389E02D80818F7D80830895C5
:1005B000EF92FF920F931F93CF93DF93EC0181E0B3
:1005C000888F9B8D8C8D98131AC0E889F98980815A
:1005D00085FF15C09FB7F894EE89FF896083E8898D
:1005E000F98980818370806480839FBF81E090E07F
:1005F000DF91CF911F910F91FF90EF900895F62E0C
:100600000B8D10E00F5F1F4F0F731127E02E8C8DA5
:100610008E110CC00FB607FCFACFE889F9898081EA
:1006200085FFF5CFCE010E94B602F1CFEB8DEC0F26
:10063000FD2FF11DE35AFF4FF0829FB7F8940B8F07
:10064000EA89FB8980818062CFCFCF93DF931F92AD
:10065000CDB7DEB789836EE18AEE91E00E94D802C1
:1006600041E050E0BE016F5F7F4F8AEE91E00E9453
:1006700003026FE18AEE91E00E94D8020F90DF91B1
:10068000CF910895CF93DF93EC01888D8823B9F043
:10069000AA89BB89E889F9898C9185FD03C080818D
:1006A00086FD0DC00FB607FCF7CF8C9185FFF2CF0A
:1006B000808185FFEDCFCE010E94B602E9CFDF91A8
:1006C000CF91089580E090E0892B29F00E94AC0240
:1006D00081110E94000080E090E0892B49F080E0C9
:1006E00090E0892B29F00E94000081110C940000F9
:1006F000089520917001260F3327331F21343105CF
:10070000ECF42091B401FC0190E080E0243069F029
:1007100082E00895A09170012191AC01405D5E4F8F
:10072000A40FB52FB11D2C930196861798F38091D5
:100730007001680F6093700180E0089581E0089572
:100740000F93413408F044C09091B4019111FCCF53
:1007500092E09093B4010093B6019FEF9093B301A0
:100760007093B8016093B7011092BA014093B90138
:100770001092BB019091BB01880F892B8093BB0124
:100780008091B501813011F51092B5018091BB01C6
:100790008093BB008091BC0083FDF8CF85EC8093F3
:1007A000BC00222321F08091B4018230D1F38091EA
:1007B000B3018F3F79F08091B301803269F080916D
:1007C000B301803359F084E00F91089585EEE7CFAF
:1007D00081E0FACF80E0F8CF82E0F6CF83E0F4CF7B
:1007E0004134E0F59091B4019111FCCF91E09093E8
:1007F000B4012093B6012FEF2093B3017093B80199
:100800006093B7011092BA01240F2093B90190931D
:10081000BB019091BB01880F892B8093BB01809114
:10082000B5018130C9F41092B5018091BB0180936C
:10083000BB008091BC0083FDF8CF85EC8093BC00A9
:100840008091B4018130E1F38091BA01841710F4F2
:100850004091BA01842F089585EEF0CF40E0FACFA1
:10086000E091A302F091A402309729F01092A00227
:100870001092A10209940895DC018091A502909143
:10088000A602892B19F190919B0280919C029817E6
:10089000E8F090E0292F30E0261737076CF4FD01CF
:1008A000E20FF31F4081E0919902F0919A02E20F6A
:1008B000F31F40839F5FEECF10929B0260939C02D8
:1008C000E091A502F091A602CB0109940895089544
:1008D000DC015096EC91509751968C915197E81706
:1008E00048F41E968D919C91E80FF92FF11D80819F
:1008F00090E008958FEF9FEF0895FC019089818922
:100900002FEF3FEF981740F4A685B785A90FB11DCB
:100910002C9130E09F5F908BC9010895CF92DF92B8
:10092000EF92FF920F931F93CF93DF938C01CB0134
:100930007A01D80157962C915797222389F0EB0121
:100940006B01C40ED51ECC15DD0579F06991D80177
:10095000ED91FC910190F081E02DC8010995F3CF54
:100960009896ED91FC91642F0995C701DF91CF9185
:100970001F910F91FF90EF90DF90CF900895CF934C
:10098000DF931F92CDB7DEB7FC0169838789882387
:10099000F9F02689848595852817190654F081E099
:1009A00090E09383828390E080E00F90DF91CF917D
:1009B00008958981A58923893489A20FB32FB11D98
:1009C0008C9385898F5F858B868B81E090E0EDCF5E
:1009D00000A4F1A5E02D61E0CE0101960995F5CFC7
:1009E00090E080E00895E2ECF1E014821382158239
:1009F00017A216A2E8ECF1E080E2DF011D928A95D1
:100A0000E9F708958F929F92AF92BF92FF920F9352
:100A10001F93CF93DF93082FF92E162F0E946D029C
:100A20009091FC028091FD02C1E0D0E0981709F49A
:100A300058C08FB7F8948090BE019090BF01A090ED
:100A4000C001B090C1018FBFC12FD0E021962FB758
:100A5000F8948091BE019091BF01A091C001B09126
:100A6000C1012FBF88199909AA09BB0984369105CC
:100A7000A105B10508F05DC00E946D02E091FD0284
:100A80008091FC028E1B8F738C171D0601F3FCF204
:100A9000AE2FAF73B0E0A554BD4F11968C918E313F
:100AA00059F5EC0FFD2FF11DEF73FF27E554FD4FB6
:100AB00081818F3109F58CEB92E00E94FF00B02E0E
:100AC000C02FDF2D8CEB92E00E94FF0089938C2FCA
:100AD0008B198117B8F38CEB92E00E94FF00D0E0F5
:100AE000C0E0CE01DF91CF911F910F91FF90BF9099
:100AF000AF909F908F9008958CEB92E00E94FF0042
:100B0000E091FD028091FC028E1739F0EF73F0E066
:100B1000E554FD4F81818E3179F78CE00E942503E9
:100B2000C3E0D0E00E94F3041092C3011092C2010E
:100B3000D8CF88E00E942503C2E0D0E0F3CFCF9366
:100B4000DF9300D0CDB7DEB762E0CE0101960E9400
:100B50000205892BB9F489819A81982789279827DA
:100B6000811520E1920728F49C012F713327232B54
:100B700071F086E00E9425030E94F3041092C301E5
:100B80001092C2010F900F90DF91CF910895909332
:100B9000C6018093C50181E08093C70187E00E9470
:100BA0002503ECCF1F920F920FB60F9211244F9393
:100BB0005F936F937F938F939F934091BE0150916A
:100BC000BF016091C0017091C1018091BD01909100
:100BD000BC019230F9F4835D1092BC018D37F8F0BE
:100BE0008D574E5F5F4F6F4F7F4F8093BD01409396
:100BF000BE015093BF016093C0017093C1019F91EA
:100C00008F917F916F915F914F910F900FBE0F90D9
:100C10001F9018959F5F9093BC01825DDFCF4F5F5F
:100C20005F4F6F4F7F4FE1CF1F920F920FB60F9222
:100C300011242F933F934F935F936F937F938F93E1
:100C40009F93AF93BF93EF93FF938AEE91E00E943F
:100C5000B602FF91EF91BF91AF919F918F917F91DC
:100C60006F915F914F913F912F910F900FBE0F9019
:100C70001F9018951F920F920FB60F9211242F9369
:100C80008F939F93EF93FF93E091FA01F091FB0113
:100C90008081E0910002F091010282FD1BC09081F1
:100CA000809103028F5F8F7320910402821741F0BD
:100CB000E0910302F0E0E651FE4F958F809303022E
:100CC000FF91EF919F918F912F910F900FBE0F90F9
:100CD0001F9018958081F4CF1F920F920FB60F923C
:100CE00011242F933F934F935F936F937F938F9331
:100CF0009F93AF93BF93EF93FF938091B900887F49
:100D0000803609F44CC008F03FC0883209F4A8C00E
:100D100018F5803109F49CC0B8F4882309F405C1A2
:100D2000883009F495C0FF91EF91BF91AF919F91E9
:100D30008F917F916F915F914F913F912F910F9084
:100D40000FBE0F901F901895883109F489C080322A
:100D500051F78093B30115C0803409F4A6C048F45C
:100D60008033B9F38833F9F68093B3010E94E4002D
:100D7000DACF803509F489C0883509F49EC08834FB
:100D800091F60E94DA00CFCF883909F494C038F583
:100D9000883729F050F4883611F0803721F683E047
:100DA0008093B4011092B20157C0883809F483C00F
:100DB000803919F0803809F0B6CF8091B2018034C3
:100DC00008F079C0E091B20181E08E0F8093B2010A
:100DD0008091BB00F0E0EE58FE4F80833DC0803B29
:100DE00039F0E0F4803A09F485C0883A09F09BCFE5
:100DF00084E08093B4011092710110927001E0912F
:100E00008902F0918A0209958091700181110FC0C9
:100E100081E0809370011092300109C0803C09F498
:100E200082C0883C09F47FC0883B09F07CCFE09108
:100E3000710181E08E0F80937101F0E0E05DFE4F63
:100E400080818093BB00909171018091700131C0CD
:100E50008091BB018093BB0085EC8093BC0063CF85
:100E60009091BA018091B9019817B8F58091B701B6
:100E70009091B801E091BA0121E02E0F2093BA01C0
:100E8000E80FF92FF11D8081E5CF2091B701309156
:100E9000B801E091BA0181E08E0F8093BA01809190
:100EA000BB00E20FF32FF11D80839091BA01809176
:100EB000B901981788F285E8D0CF2091B701309119
:100EC000B801E091BA0181E08E0F8093BA01809160
:100ED000BB00E20FF32FF11D80838091B6018111D9
:100EE00050CF81E08093B50184EA8093BC001092DA
:100EF000B40119CF0E94E4008091B201803430F433
:100F0000E091B201F0E0EE58FE4F10826091B20124
:100F100070E0E0918702F091880282E791E0099504
:100F20001092B20100CF85ECE0CF1092B30129CF2F
:100F3000CF93DF93EAEEF1E01382128288EE93E022
:100F4000A0E0B0E084839583A683B7832AE031E0F4
:100F50003183208325EC30E03587248724EC30E092
:100F60003787268720EC30E0318B208B21EC30E076
:100F7000338B228B22EC30E0358B248B26EC30E057
:100F8000378B268B118E128E138E148ECBE8D2E007
:100F90001B821A828C839D83AE83BF838CE191E098
:100FA0009983888380E490E09D878C870E94BB0AA8
:100FB0009F878E87188A198A1A8A80E490E00E9497
:100FC000BB0A9C8B8B8B1D8A1E8A1F8A8FE791E040
:100FD0009D8F8C8F8DE991E09F8F8E8F8BEB90E0B2
:100FE00099A388A38FEB90E09BA38AA380EF93E063
:100FF0009DA38CA380EA93E09FA38EA389E793E04F
:1010000099A788A782ED90E09BA78AA78AED90E038
:101010009DA78CA784EE90E09FA78EA78CE394E019
:10102000909388028093870280E394E090938A02F1
:101030008093890280E58093FF0289E08093BB0260
:101040001092FC021092FD021092FE02DF91CF91ED
:101050000895CF93DF931F92CDB7DEB7789484B510
:10106000836084BD85B5836085BD80916E0081609D
:1010700080936E0012E01093810080918100816066
:1010800080938100809180008160809380008091B6
:10109000B10084608093B1008091B0008160809342
:1010A000B0008091910083608093910080919000C6
:1010B0008160809390008091A10083608093A10063
:1010C0008091A00081608093A00086E880937A00E0
:1010D0001092C10010929B0210929C021092A002EA
:1010E0001092A102E091A702F091A8020995E09167
:1010F000AD02F091AE0260EA76E881E090E00995F9
:10110000E091FA01F091FB011083E091F601F0917A
:10111000F7011082E091F801F091F90189E18083F3
:1011200010920202E091FE01F091FF0186E08083BF
:10113000E091FC01F091FD01808188698083E0915C
:10114000FC01F091FD0180818F7D80838091BB0245
:1011500090E0FC01E951FF4F249184539F4FFC0123
:101160008491882399F090E0880F991FFC01EC543A
:10117000FF4FA591B491FC01E054FF4F85919491EC
:101180008FB7F894EC91E22BEC938FBF61E08091E4
:10119000BB020E94140143E0242E312C52E0A52E04
:1011A000B12C88248394912C00E210E08091C2013C
:1011B0009091C3018130910501F150F08230910589
:1011C00009F494C0039709F40FC10E946203EECFA3
:1011D000198261E0CE0101960E940205892BA9F7D0
:1011E00089819FEF980F973008F080E08093C401C9
:1011F0009092C3018092C201E8CF8091C4018330F4
:1012000009F455C048F48130E1F18230E1F11092E7
:10121000C3011092C201D9CF843009F454C0853083
:10122000B1F760E08091BB020E9414010E94AA0104
:101230006B017C0132E3432E512C612C712C0E94F6
:10124000AA016C197D098E099F09683E73408105CA
:101250009105A8F3F1E04F1A51086108710828EED2
:10126000C20E23E0D21EE11CF11C411451046104A2
:10127000710429F761E08091BB020E9414010E9471
:10128000F30487E011C08091FF0291E09093A202E5
:1012900080939D021092A0021092A10281E00E9410
:1012A000EA00882371F386E00E942503B0CF809185
:1012B000C701811103C087E00E9425033092C3015A
:1012C0002092C20182CF8091C701811108C087E0BE
:1012D0000E942503B092C301A092C20176CF8091F3
:1012E000E8019091E901892BA9F7F1CF8091C7011D
:1012F000811103C00E949F0568CFE090E801F09043
:10130000E901E114F10469F460E288EC91E00E94E3
:101310000205892B09F059CF1093E9010093E801E8
:10132000B0CF7090C5016090C60123E0D22ECC24CE
:10133000C3948091FF02C092A20280939D021092FA
:10134000A0021092A102662D8BE892E00E94BF04D9
:10135000672D8BE892E00E94BF04A70168EC71E062
:101360008BE892E00E948E0481E00E94EA008111E5
:1013700036C08FB7F894C090BE01D090BF01E09006
:10138000C001F090C1018FBF772473948091FF0258
:101390007092A20280939D021092A0021092A1026C
:1013A00081E00E94EA00882309F495C02FB7F894E1
:1013B0008091BE019091BF01A091C001B091C10187
:1013C0002FBF8C199D09AE09BF090A97A105B10568
:1013D000E8F288E00E9425030E94F30418CFDA9413
:1013E000D110A7CF89E0F6CF8091C701882309F4F7
:1013F00081CF1093E9010093E801D090C501C0901E
:10140000C60193E0F92EEE24E3948091FF02E0926E
:10141000A20280939D021092A0021092A1026C2D54
:101420008BE892E00E94BF046D2D8BE892E00E9451
:10143000BF0480E00E94EA00811148C08091FF0251
:1014400040919702509198024032510514F040E2C9
:1014500050E06091990270919A02E091AF02F09190
:10146000B00221E0099510929B0280939C02803289
:1014700069F588ECE82E81E0F82E90919C0280912D
:101480009B02981731F18BE892E00E947D04F701EE
:1014900081937F01F8EEEF16F1E0FF0671F7E0901F
:1014A000E801F090E9016EE18AEE91E00E94D80235
:1014B000A701552768EC71E08AEE91E00E940302D3
:1014C0006FE18AEE91E00E94D80286CFFA94F11083
:1014D0009CCF8AE07FCF87E07DCF8CE191E0909335
:1014E0008C0280938B028091990290919A020097CE
:1014F00011F00E94570B80919E0290919F020097DD
:1015000011F00C94570B0895A1E21A2EAA1BBB1BD5
:10151000FD010DC0AA1FBB1FEE1FFF1FA217B307BF
:10152000E407F50720F0A21BB30BE40BF50B661FD5
:10153000771F881F991F1A9469F760957095809599
:1015400090959B01AC01BD01CF010895EE0FFF1FE7
:101550000590F491E02D0994A29FB001B39FC001C2
:10156000A39F700D811D1124911DB29F700D811DCF
:101570001124911D08950F931F93CF93DF93823011
:10158000910510F482E090E0E0910203F0910303F2
:1015900030E020E0B0E0A0E0309799F4211531056B
:1015A00009F44AC0281B390B24303105D8F58A814B
:1015B0009B816115710589F1FB0193838283FE0193
:1015C00011C0408151810281138148175907E0F011
:1015D0004817590799F4109761F012960C931297D7
:1015E00013961C933296CF01DF91CF911F910F91EB
:1015F00008950093020310930303F4CF21153105DE
:1016000051F04217530738F0A901DB019A01BD01DF
:10161000DF01F801C1CFEF01F9CF9093030380936D
:101620000203CDCFFE01E20FF31F8193919322506D
:10163000310939832883D7CF2091000330910103EA
:10164000232B41F4209102013091030130930103D7
:1016500020930003209100013091010121153105F3
:1016600041F42DB73EB74091040150910501241B70
:10167000350BE0910003F0910103E217F307A0F4AA
:101680002E1B3F0B2817390778F0AC014E5F5F4FD8
:101690002417350748F04E0F5F1F50930103409306
:1016A0000003819391939FCFF0E0E0E09CCFCF9334
:1016B000DF930097E9F0FC01329713821282A09128
:1016C0000203B0910303ED0130E020E01097A1F494
:1016D00020813181820F931F2091000330910103FB
:1016E0002817390709F061C0F0930103E093000364
:1016F000DF91CF910895EA01CE17DF07E8F54A811F
:101700005B819E0141155105B1F7E901FB83EA8335
:1017100049915991C40FD51FEC17FD0761F48081E1
:1017200091810296840F951FE901998388838281B4
:1017300093819B838A83F0E0E0E012968D919C91E7
:1017400013970097B9F52D913C911197CD01029611
:10175000820F931F2091000330910103281739074E
:1017600039F6309751F51092030310920203B093AB
:101770000103A0930003BCCFD383C2834081518176
:10178000840F951FC817D90761F44E5F5F4F88819A
:101790009981480F591F518340838A819B8193838C
:1017A00082832115310509F0B0CFF0930303E09354
:1017B00002039ECFFD01DC01C0CF13821282D7CF7E
:1017C00010E0C0E9D0E004C0FE010E94A60A219604
:0A17D000C139D107C9F7F894FFCF23
:1017DA0000000403800000000000D8020302300267
:1017EA00420361023F02530200000000BF048E045C
:0A17FA00F0046704FD017D0468049B
:00000001FF
